:04000000803105281E
:10000800090088018031082820000A280E20803144
:1000180064000C28210099171908FC390238990046
:1000280019088739703899001708C13912389700AC
:1000380023008C018D0121009501200095012400E9
:1000480093019B01250096019D0120009B018B17C0
:100058008B16F001F101392080310030F001F101F7
:100068003D2021008C018D010800700820008C00C3
:0A0078000800700820008D00080049
:020000040001F9
:04000E00FCFFFFD81C
:00000001FF
