:04000000803105281E
:10000800090088018031082820000A2821001710DB
:100018001420803136208031210017146400122802
:10002800210099171908FC390238990019088739ED
:10003800703899001708C1391238970023008C01CD
:100048008D0121009501240093019B012500960153
:100058009D0120009B018B178B16023021008C001C
:100068008D0108000230F000F1013E208031F001DE
:10007800F1014228700820008C0008007008200058
:040088008D000800DF
:020000040001F9
:04000E00FCFFFFD81C
:00000001FF
