:04000000803105281E
:10000800090088018031082820000A28132080313F
:10001800640020000C148C100C178C130C28210081
:1000280099171908FC390238990019088739703866
:1000380099001708C1391238970023008C018D01E7
:100048002100950120009501240093019B012500C2
:1000580096019D0120009B018B178B16F001F10181
:100068003F208031F001F1014320043021008C0051
:1000780003308D000800700820008C00080070080C
:0600880020008D000800BD
:020000040001F9
:04000E00FCFFFFD81C
:00000001FF
